:1000000080C1A4C1A3C1A2C1A1C1A0C19FC19EC101
:100010009DC10ECC9BC1F3C924CA98C197C196C19A
:1000200095C12DC893C10000000000080000000029
:100030001C080000002A1C080000082A1C080008F0
:10004000082A1C080008082A1C000008082A0000CA
:100050000008080000000008000000000030483AD6
:10006000060E2629792926407F050507407F0525AC
:100070003F5A3CE73C5A7F3E1C1C08081C1C3E7F34
:1000800014227F22145F5F005F5F08047E0408046F
:10009000023F020402011F010201000F00010000E3
:1000A00007000000008300000080C180008040E065
:1000B00040804020F020402010F810201008FC085C
:1000C00010060E3E0E06000000000000005F00005B
:1000D0000007000700147F147F14242A7F2A1223AC
:1000E0001308646236495620500008070300001CBC
:1000F0002241000041221C002A1C7F1C2A08083EC5
:1001000008080080703000080808080800006060D7
:100110000020100804023E5149453E00427F400045
:1001200072494949462141494D331814127F10271D
:10013000454545393C4A494931412111090736496C
:10014000494936464949291E000014000000403440
:100150000000000814224114141414140041221445
:100160000802015909063E415D594E7C1211127C6C
:100170007F494949363E414141227F4141413E7FCD
:10018000494949417F090909013E414151737F08AD
:1001900008087F00417F41002040413F017F081453
:1001A00022417F404040407F021C027F7F040810B4
:1001B0007F3E4141413E7F090909063E4151215E92
:1001C0007F09192946264949493203017F01033F26
:1001D0004040403F1F2040201F3F4038403F6314B5
:1001E00008146303047804036159494D43007F41B7
:1001F00041410204081020004141417F04020102F4
:100200000440404040400003070800205454784018
:100210007F284444383844444428384444287F38AC
:100220005454541800087E090218A4A49C787F082E
:1002300004047800447D40002040403D007F1028A9
:10024000440000417F40007C047804787C0804046A
:10025000783844444438FC1824241818242418FC02
:100260007C08040408485454542404043F44243CA7
:100270004040207C1C2040201C3C4030403C442816
:100280001028444C9090907C4464544C44000836B0
:10029000410000007700000041360800020102041E
:1002A000023C2623263C10207E20102040FC4020CB
:1002B0004080F880408000F000800000E0000000F6
:1002C00000C10000000183010001020702010204D5
:1002D0000F040204081F080408103F10080F101133
:1002E000111213131415161617181819191A1A1BA8
:1002F0001B1C1C1D1D1D1E1E1E1E1E1E1E1F4B0612
:100300005F0A11241FBECFE5D4E0DEBFCDBF10E0F1
:10031000A0E6B0E0E6E9FFE102C005900D92AE3B39
:10032000B107D9F723E0AEEBB0E001C01D92A239CE
:10033000B207E1F711E0C1E8D1E003C02197FE0167
:1003400006DECF37D107D1F7E6D823CE59CE1092AB
:10035000D1001092D2001092D3001092D4001092CB
:10036000CD001092CE001092CF001092D000AADAE9
:100370006093DE007093DF008093E0009093E100D3
:100380006093DA007093DB008093DC009093DD00D3
:100390006093D6007093D7008093D8009093D900D3
:1003A0001092D5001092C80080B390E0809590958F
:1003B000959587959595879583708093C900109240
:1003C000CC00089560E87AE186E090E002D6B2D4ED
:1003D00082EC90E0A8D7B4D46093E2007093E3007D
:1003E0008093E4009093E500929A8A98939A8B9870
:1003F00080E090E0B9DD8093CA008F3F29F0682F3C
:1004000082EC90E0B8D605C082EC90E0B1D6809343
:10041000CA0081E090E0A8DD8093CB008F3F29F0F7
:10042000682F82EC90E09AD605C082EC90E093D6DB
:100430008093CB008CCF8F929F92AF92BF92CF923E
:10044000DF92EF92FF920F931F93CF93DF936B0195
:100450007C0149015A01E80120E030E0A90194DB68
:1004600087FF06C0F7FAF094F7F8F09411E001C0A6
:1004700010E0A5019401C701B60186DB87FF06C025
:1004800080E28883C12CD12C760127C02FE632E18F
:1004900043E85AE3C701B60177DB87FF07C085E76A
:1004A000888320E034E244E759E40FC020E030E0E4
:1004B00040E85FE3C701B60167DB87FF0CC08DE64C
:1004C000888320E030E04AE754E4C701B601AADCA3
:1004D0006B017C0102C080E28883C701B601111163
:1004E0009058DF91CF911F910F91FF90EF90DF9087
:1004F000CF90BF90AF909F908F900895CF92DF9252
:10050000EF92FF92CF936B017C0120E030E0A901D4
:100510003BDB87FF06C0F7FAF094F7F8F094C1E0F0
:1005200001C0C0E020E030E04AE754E4C701B60172
:1005300075DC87FD02C087E017C020E030E048ECA2
:1005400052E4C701B6016ADC87FD02C086E00CC038
:1005500020E030E040E251E4C701B6015FDC87FDF6
:1005600002C085E001C084E08C0FCF91FF90EF9036
:10057000DF90CF9008954F925F926F927F928F920B
:100580009F92AF92BF92CF92DF92EF92FF920F9322
:100590001F93CF93DF93CDB7DEB76D970FB6F89467
:1005A000DEBF0FBECDBF8091C1008F5F6BE0A1DCCD
:1005B0009093C10087D94B015C014090DE005090C0
:1005C000DF006090E0007090E1006091E2007091C7
:1005D000E3008091E4009091E5009E01265F3F4F8B
:1005E00079018E01025F1F4F285F3F4FAE014A5EC7
:1005F0005F4FF8D3882309F45AC2C501B4016419C6
:1006000075098609970958DB20E03AEB4BE55AE477
:10061000BFDA6B017C012A853B854C855D8502DC58
:100620009B01AC016091CD007091CE008091CF0014
:100630009091D00045DA6093CD007093CE00809306
:10064000CF009093D0002E853F8548895989C701F6
:10065000B601E8DB9B01AC016091D1007091D20042
:100660008091D3009091D4002BDA6093D1007093E5
:10067000D2008093D3009093D4008092DE009092B9
:10068000DF00A092E000B092E10060E082EC90E038
:1006900044D68091D5008823D9F08091D6009091DE
:1006A000D700A091D800B091D900A5019401281BD2
:1006B000390B4A0B5B0BCA01B90120EA3BEB4DE059
:1006C00050E023DC603C77428940910508F09DC1F1
:1006D00040E060E082EC90E033D56E897F89888DC0
:1006E000998D8E01035E1F4F2FE632E143E85AE3F6
:1006F000A2DE6E8B7F8B888F998F68E670E082EC2C
:1007000090E053D76E897F89888D998DF7DE2AE036
:1007100030E0281B3109243031051CF06AE0681BE9
:1007200001C063E082EC90E005D54E895F89688D59
:10073000798D22E030E082EC90E079D86D8D82EC0A
:1007400090E03ED76A857B858C859D858E01035E12
:100750001F4F2DEB37E346E855E36DDE6A877B8755
:100760008C879D876CE670E082EC90E01ED76A85EE
:100770007B858C859D85C2DE2AE030E0281B31090F
:10078000243031051CF06AE0681B01C063E082EC94
:1007900090E0D0D44A855B856C857D8522E030E091
:1007A00082EC90E044D86D8D82EC90E009D76091A6
:1007B000D1007091D2008091D3009091D4008E012D
:1007C000035E1F4F2DEB37E346E855E334DE6E87BB
:1007D0007F87888B998B60E770E082EC90E0E5D6AC
:1007E0006E857F858889998989DE2AE030E0281B1B
:1007F0003109243031051CF06AE0681B01C063E058
:1008000082EC90E097D44E855F856889798922E0F3
:1008100030E082EC90E00BD86D8D82EC90E0D0D689
:100820006091CD007091CE008091CF009091D0006A
:100830008E01035E1F4F2DEB37E346E855E3FBDDEA
:100840006E877F87888B998B64E770E082EC90E0FD
:10085000ACD66E857F858889998950DE2AE030E0A4
:10086000281B3109243031051CF06AE0681B01C0E7
:1008700063E082EC90E05ED44E855F85688979897B
:1008800022E030E082EC90E0D2D76D8D82EC90E0F7
:1008900097D689E0E8E8F0E0DE01119601900D922C
:1008A0008A95E1F78091DA009091DB00A091DC005D
:1008B000B091DD00A5019401281B390B4A0B5B0B9D
:1008C000CA01B90128EE33E040E050E01EDB6901C7
:1008D0007A01CA01B90120E13EE040E050E015DBB9
:1008E000822F1AE0612F05DB805D8983905D9A83FA
:1008F0004CE3442E512C612C712CC701B601A3018D
:10090000920103DB062FCA01B901A3019201FDDAAE
:10091000862F612FEEDA20E3280F2C83905D9D83D4
:10092000802FE7DA805D8F83905D988740E06DE0EF
:1009300082EC90E005D4BE016F5F7F4F82EC90E0C7
:1009400034D68091CC0081110CC04091C8004F5F1B
:100950006DE082EC90E0F4D36091C10082EC90E015
:1009600025D68DE08A8F8B8F8C8F8091C800FE01F9
:10097000E80FF11D87FDFA958EE0828F41E06A8DC8
:1009800082EC90E0DDD368E770E082EC90E00DD679
:1009900042E06B8D82EC90E0D3D36EE770E082ECA6
:1009A00090E003D643E06C8D82EC90E0C9D365E81B
:1009B00070E082EC90E0F9D58091CC00813061F458
:1009C0008091CB008E3F20F46091C1006C5E01C02D
:1009D0006FE582EC90E0EAD54AE050E06091CB0010
:1009E00082EC90E050D68091CC00813009F05CC060
:1009F0008091CB00823020F06091C100605801C02E
:100A00006FE582EC90E0D2D54FC08091C0008F5F3F
:100A10008F778093C0008091BF008E5F8F77809327
:100A2000BF00E12CF12CD12C3EE1732ECE2C80E8BE
:100A3000E816F104C9F16D2D70E069547D4F82EC28
:100A400090E00CD431E4E316F10438F08E3120F458
:100A5000472D481B842F01C080E0082F10E08091B3
:100A6000C000B701680F711D6F77772720E030E075
:100A7000A80182EC90E0A8D38091BF00B701680F75
:100A8000711D609570956F77772720E030E0A801A1
:100A900082EC90E099D3C5FE02C0DA9401C0D394F1
:100AA0005FEFE51AF50AC2CF82EC90E07DD480B307
:100AB00090E0809590959595879595958795182FB9
:100AC00013702091C900121709F464C08092D600F7
:100AD0009092D700A092D800B092D900133081F53F
:100AE0008091C800813031F08230D9F081114FC03F
:100AF0002EDC4DC08091CA00882341F01092CA00BC
:100B000060E082EC90E037D360E008C082E0809340
:100B1000CA0062E082EC90E02ED362E080E090E0D8
:100B20000DC081E09091CC00911180E08093CC00C9
:100B300081112DC06091CB0081E090E01DDA27C0CB
:100B40003091CC00311123C0213089F480FD1FC0C9
:100B50008091CA00811113C08091C8008F5F80937B
:100B6000C8008330A4F082E08093C80010C0223017
:100B700071F481FD0CC08091CA00823069F38091CC
:100B8000C80081508093C80087FD1092C800109360
:100B9000C90028C08091CC00813021F5113029F4A2
:100BA0008091CA00882339F00FC01230D9F48091A7
:100BB000CA00823031F48091CB00882371F08150DB
:100BC0000AC0882319F00EC0823061F48091CB00F6
:100BD0008E3F18F48F5F8093CB006091CB0082EC46
:100BE00090E0BCD28091D6009091D700A091D8001F
:100BF000B091D900881A990AAA0ABB0A8091D50037
:100C000091E289169FEB990692E0A906B10408F1DA
:100C100011111FC0811110C081E08093D500609137
:100C2000CB006093BE008091CC00813029F481E03C
:100C300090E0A2D91092CC008091CB00882319F0CB
:100C400081508093CB006091CB0082EC90E086D203
:100C50000BC0882349F06091BE006093CB0082EC0A
:100C600090E07CD21092D5006D960FB6F894DEBF5E
:100C70000FBECDBFDF91CF911F910F91FF90EF90ED
:100C8000DF90CF90BF90AF909F908F907F906F90AC
:100C90005F904F900895E2ECF0E01382128285E9B4
:100CA00090E0918380831482158208951F93CF93DF
:100CB000DF9300D0CDB7DEB7182F60E070E080E49E
:100CC000BED1812F95D161E070E080E4B8D160E0C1
:100CD000CE0101969AD161E0CE01029696D1A9D1BA
:100CE000898190E0982F88272A81820F911D0F908B
:100CF0000F90DF91CF911F9108951F93CF93DF93B2
:100D0000182FEB0160E070E080E499D1812F70D161
:100D10008D2F6ED18C2F6CD1DF91CF911F9189C116
:100D200080E0C4DF0895BC0180E0E7CFF9DF906880
:100D3000FADF0895FBCF85E0B9CFBC0185E0DDCFB8
:100D4000CF93DF9382E690E1F8DFF5DFEC018FE9E6
:100D500099E1E9DFBE0180E090E0AED72DEC3CECFC
:100D60004CEC5DE35FD89B01AC016CEA75EC87E26B
:100D70009DE30ED7DF91CF910895CF92DF92EF924E
:100D8000FF920F931F93CF93DF936C017B01EA01D6
:100D9000890182E08BDF80FD1BC081FFFACFFC015F
:100DA00083E0F695E7958A95E1F7D601ED93FC93FC
:100DB00081E07CDFF7019183808384E077DFD801D5
:100DC0008D939C9383E072DF9983888381E001C0D7
:100DD00080E0DF91CF911F910F91FF90EF90DF9016
:100DE000CF9008954F925F926F927F929F92AF92B1
:100DF000BF92CF92DF92EF92FF920F931F93CF9308
:100E0000DF93CDB7DEB728970FB6F894DEBF0FBEDD
:100E1000CDBF2B013C015A0169019E012F5F3F4F5D
:100E2000AE014D5F5F4FBE016B5F7F4FCE010796F6
:100E3000A4DF982E882309F44DC06F817885072E92
:100E4000000C880B990B3AD72FE632E143E85BE3BD
:100E5000E9D7F50160837183828393836D817E81FD
:100E6000072E000C880B990B29D72CEA35EC47E2AA
:100E700057E3D8D7F60160837183828393836981B6
:100E80007A81072E000C880B990B18D79B01AC01B7
:100E9000C301B201C7D7F701608371838283938353
:100EA00020E030E040EA51E4C301B201BBD76B015E
:100EB0007C018B819C81BC01990F880B990BFED61C
:100EC0009B01AC01C701B601ADD7F8016083718306
:100ED00082839383892D28960FB6F894DEBF0FBEC8
:100EE000CDBFDF91CF911F910F91FF90EF90DF90D9
:100EF000CF90BF90AF909F907F906F905F904F90FA
:100F000008959B01AC01233D86E738074105510553
:100F100090F081B18C7F81B960E074E284EF90E061
:100F2000F4D7DA01C9014097A109B109B695A7958F
:100F3000979587954CC027368EE1380741055105B6
:100F4000B0F081B18C7F81B9089A60E074E284EFDF
:100F500090E0DBD7DA01C9014097A109B10943E06C
:100F6000B695A795979587954A95D1F730C0253ABC
:100F700087E0380741055105B0F081B18C7F81B918
:100F8000099A60E074E284EF90E0BFD7DA01C9010A
:100F90004097A109B10935E0B695A7959795879532
:100FA0003A95D1F714C081B1836081B960E074E2F1
:100FB00084EF90E0AAD7DA01C9014097A109B109ED
:100FC00027E0B695A795979587952A95D1F780B98B
:100FD000089597CF83B984E886BF089506B607FEC3
:100FE000FDCF91B1987F81E0983209F080E00895BB
:100FF00083B984E886BF06B607FEFDCF91B1987F1E
:1010000081E0983209F080E00895FC01662311F038
:1010100094E801C094EC96BF06B607FEFDCF91B1EF
:10102000907F903521F483B1808381E0089580E042
:10103000089584E986BF06B604FCFDCF089594EABE
:1010400096BF06B607FEFDCF91B1987F983029F084
:10105000903119F0EEDF80E00895880F672B09F0DA
:10106000816083B984E886BF06B607FEFDCF81B1F3
:10107000887F883111F0803469F781E008951F92EC
:101080000F920FB60F9211242F933F934F935F93BC
:101090006F937F938F939F93AF93BF93EF93FF9340
:1010A00081B1887F803761F028F4803649F0883636
:1010B000F1F406C0883A89F0803B79F08837B9F4BA
:1010C000E091E800F091E900309739F083FB662762
:1010D00060F98295817009950CC0E091E600F0916D
:1010E000E700309721F082958170099502C085EC68
:1010F00086BFFF91EF91BF91AF919F918F917F91AB
:101100006F915F914F913F912F910F900FBE0F9074
:101110001F90189580E090E008950895CF93C82F10
:1011200060E070E08CE38BDF80E062DF8C2F60DFBB
:10113000CF917FCF653108F064E1FC0164830895AD
:10114000653108F064E1FC016483443008F043E059
:10115000FC01458308958091EA000895CF93C62F3E
:1011600081E8DCDF8C2FDADFC093EA00CF910895AD
:101170008091EB00089562706093EB00662319F094
:10118000623029F0089580EAC9DF80EC03C081EA6B
:10119000C5DF88ECC3DF80E890E090936700809320
:1011A000660080E290E090936500809364008FE792
:1011B00090E090936300809362008FE190E09093C1
:1011C00061008093600008958091620090916300B7
:1011D000861797070CF441C08091600090916100E0
:1011E00084179507D4F177FD38C057FD36C0FA0152
:1011F000E770FF2781E090E001C0880FEA95EAF7E9
:1012000093E0559547959A95E1F7A0916600B091C6
:1012100067004A9FF0014B9FF00D5A9FF00D11247B
:101220006E0F7F1F2130310559F02230310579F0E2
:10123000232B99F4FB01E451FF4F9081892B0CC0C3
:10124000FB01E451FF4F80959081892305C0FB018C
:10125000E451FF4F9081892780830895FB01EA5D67
:10126000FF4F84910895FC012481F5E06F9FB00148
:101270001124FC0135818091660090916700389FB0
:10128000D001399FB00D1124F6E02F9FA00DB11DA4
:101290001124A451BF4F80E090E0FC01E60FF71F3E
:1012A000EA5DFF4FE4914130510549F0423051056C
:1012B00051F04115510551F42C91E22B06C0E095F7
:1012C0002C91E22302C02C91E227EC930196119617
:1012D0008530910511F70895CF93DF936D3019F4A0
:1012E000FC01148215C0EC016A3039F48D818F5FE6
:1012F0008D83843068F01D820BC040E050E0B3DF86
:101300008C818F5F853110F48C8302C01C82EECFFC
:1013100081E090E0DF91CF91089570E040E052E0ED
:101320008CEE90E01AC6CF93DF93EC01B89AC09888
:10133000C09A8EEAF3DE8EEAF1DE85EDEFDE80E81C
:10134000EDDE88EAEBDE8FE1E9DE83EDE7DE80E0CB
:10135000E5DE80E4E3DE8DE8E1DE84E1DFDE80E2ED
:10136000DDDE80E0DBDE80EAD9DE80ECD7DE8AEDF0
:10137000D5DE82E0D3DE6FE8CE01F0DE89EDCEDE91
:1013800081EFCCDE8BEDCADE80E4C8DE84EAC6DE07
:1013900086EAC4DE60E0CE01EEDE8FEABFDE60E00A
:1013A000CE01DF91CF91B9CFCF93DF9381E2B6DE4B
:1013B00080E0B4DE8FE7B2DE82E2B0DE80E0AEDE57
:1013C00083E0ACDE60E070E08CE339DE8823A1F0DE
:1013D00080E400DE8091EB0080FF04C0FFDDDF9140
:1013E000CF9127CECCEED0E0F9DD8991F3DD82E01C
:1013F000CC3ED807C9F7F2CFDF91CF9108951F9265
:101400000F920FB60F9211242F938F939F93EF9308
:10141000FF93E091FC02F091FD028081E0910203D4
:10142000F091030382FD12C09081809105038F5FCC
:101430008F7320910603821751F0E0910503F0E0CD
:10144000E451FD4F958F8093050301C08081FF918A
:10145000EF919F918F912F910F900FBE0F901F9042
:1014600018951F920F920FB60F9211242F933F934E
:101470004F935F936F937F938F939F93AF93BF939C
:10148000EF93FF938CEE92E092D2FF91EF91BF9198
:10149000AF919F918F917F916F915F914F913F910C
:1014A0002F910F900FBE0F901F9018958CEE92E029
:1014B00035D221E0892B09F420E0822F0895ECEE4B
:1014C000F2E01382128288EE93E0A0E0B0E0848321
:1014D0009583A683B78380EB90E09183808380E43B
:1014E00090E09587848729E230E0378726872BE2D2
:1014F00030E0318B208B2AE230E0338B228B958BCE
:10150000848B8CE290E0978B868B118E128E138EDB
:10151000148E08950895E2D1FDDF54D7CBECDCE0C2
:101520002AD82097E9F337D2FBCFCF92DF92EF9200
:10153000FF920F931F93CF93DF936C017A018B017E
:10154000C0E0D0E0CE15DF0589F0D8016D918D01A6
:10155000D601ED91FC910190F081E02DC601099535
:10156000892B11F47E0102C02196ECCFC701DF91D7
:10157000CF911F910F91FF90EF90DF90CF90089542
:101580006115710579F0FB0101900020E9F73197B1
:10159000AF01461B570BDC01ED91FC910280F381FA
:1015A000E02D099480E090E00895EACFDC01ED9110
:1015B000FC910190F081E02D09946DE970E0E0CF9D
:1015C0000F931F93CF93DF93EC01F0DF8C01CE01DB
:1015D000F4DF800F911FDF91CF911F910F9108953C
:1015E0004F925F926F927F92EF92FF920F931F93B1
:1015F000CF93DF93CDB7DEB7A1970FB6F894DEBFD8
:101600000FBECDBF7C01FA01CB0119A2223008F434
:101610002AE08E010F5D1F4F422E512C612C712C40
:10162000BF01A301920171D4F901CA01015011094E
:101630006A3014F4605D01C0695CD8016C93232B9F
:10164000242B252B69F7B801C7019ADFA1960FB6A5
:10165000F894DEBF0FBECDBFDF91CF911F910F91E8
:10166000FF90EF907F906F905F904F9008952115BD
:10167000310541F4DC01ED91FC910190F081E02D08
:10168000642F0994ADCF9A01462F50E060E070E0DE
:10169000EECF4F925F926F927F928F929F92AF9216
:1016A000BF92CF92DF92EF92FF92CF93DF93EC0144
:1016B0006A017B01B22E9A01AB01C701B60115D4B4
:1016C000882319F060EA70E024C026013701E8940D
:1016D00077F82FEF3FEF4FE75FE7C301B20105D483
:1016E00081110CC02FEF3FEF4FE75FE7C301B2015D
:1016F0004BD218161CF464EA70E00BC02FEF3FEFDA
:101700004FE75FE4C701B60189D3181694F468EA7D
:1017100070E0CE01DF91CF91FF90EF90DF90CF90FE
:10172000BF90AF909F908F907F906F905F904F9001
:1017300027CF2FEF3FEF4FE75FECC701B60124D271
:1017400087FDE5CF20E030E0A901C701B6011CD23A
:1017500087FF09C06DE2CE0129DF4C01F7FAF09452
:10176000F7F8F09402C0812C912CA12C60E070E07D
:1017700080E09FE3AB1439F020E030E040E251E438
:1017800007D2A394F7CF9B01AC01C701B60198D152
:101790002B013C0165D26B017C018ED29B01AC0117
:1017A000C301B2018CD12B013C012AE0B701A60193
:1017B000CE0116DF7C01E80CF91CBB2029F06EE29B
:1017C000CE01F4DEE80EF91EDB2CDD2001F120E075
:1017D00030E040E251E4C301B20124D32B013C01CB
:1017E0003FD24B01A12CB12C2AE0B501A401CE01BE
:1017F000F7DEE80EF91EC501B4015ED29B01AC0113
:10180000C301B2015CD12B013C01DA94DECFC701E8
:10181000DF91CF91FF90EF90DF90CF90BF90AF908E
:101820009F908F907F906F905F904F90089531CFF1
:101830001F920F920FB60F9211242F933F938F9305
:101840009F93AF93BF9380918A0390918B03A09154
:101850008C03B0918D033091890323E0230F2D3742
:1018600020F40196A11DB11D05C026E8230F0296A4
:10187000A11DB11D2093890380938A0390938B034C
:10188000A0938C03B0938D0380918E0390918F036E
:10189000A0919003B09191030196A11DB11D809379
:1018A0008E0390938F03A0939003B0939103BF9105
:1018B000AF919F918F913F912F910F900FBE0F90FD
:1018C0001F9018952FB7F89460918A0370918B033D
:1018D00080918C0390918D032FBF0895789483B7E6
:1018E000826083BF83B7816083BF89B7816089BF0E
:1018F0001EBC8EB582608EBD8EB581608EBD8FB5EB
:1019000081608FBD85B5846085BD85B5806485BDEA
:10191000329A319A309A379A1AB80895FC01918D0B
:10192000228D892F90E0805C9F4F821B91098F73DD
:1019300099270895FC01918D828D981731F0828D41
:10194000E80FF11D858D90E008958FEF9FEF0895CA
:10195000FC01918D828D981761F0828DDF01A80FB7
:10196000B11D5D968C91928D9F5F9F73928F90E0D9
:1019700008958FEF9FEF0895FC01538D448D252F1F
:1019800030E0842F90E0821B930B541710F0CF9619
:1019900008950197089586E59AE0892B39F080E053
:1019A00090E0892B19F082DD81112AC30895FC0192
:1019B000848DDF01A80FB11DA35ABF4F2C91848DD8
:1019C00090E001968F739927848FA689B7892C930D
:1019D000A089B1898C9180648C93938D848D9813A8
:1019E00006C00288F389E02D80818F7D8083089571
:1019F000CF93DF93EC01888D8823C1F0EA89FB89BE
:101A0000808185FD05C0A889B9898C9186FD0EC0AD
:101A10000FB607FCF5CF808185FFF2CFA889B98981
:101A20008C9185FFEDCFCE01C2DFE8CFDF91CF9162
:101A30000895EF92FF920F931F93CF93DF93EC01E2
:101A400081E0888F9B8D8C8D981305C0E889F9897A
:101A5000808185FD23C0F62E0B8D10E00F5F1F4F98
:101A60000F731127E02E8C8DE8120BC00FB607FC08
:101A7000FACFE889F989808185FFF5CFCE0197DF1C
:101A8000F2CF8B8DFE01E80FF11DE35AFF4FF0827C
:101A90000B8FEA89FB898081806207C0EE89FF890C
:101AA0006083E889F98980818064808381E090E0A7
:101AB000DF91CF911F910F91FF90EF9008955058B3
:101AC000BB27AA270ED070C161D130F066D120F0BB
:101AD00031F49F3F11F41EF456C10EF4E095E7FB7C
:101AE0004CC1E92F72D180F3BA17620773078407DC
:101AF000950718F071F49EF58AC10EF4E0950B2E4F
:101B0000BA2FA02D0B01B90190010C01CA01A0014F
:101B10001124FF27591B99F0593F50F4503E68F1AA
:101B20001A16F040A22F232F342F4427585FF3CFEB
:101B3000469537952795A795F0405395C9F77EF4BC
:101B40001F16BA0B620B730B840BBAF09150A1F005
:101B5000FF0FBB1F661F771F881FC2F70EC0BA0F8B
:101B6000621F731F841F48F4879577956795B79513
:101B7000F7959E3F08F0B3CF9395880F08F099270B
:101B8000EE0F979587950895D4D008F481E00895D5
:101B90000CD00AC102D140F0F9D030F021F45F3FFF
:101BA00019F0EBC0511134C1EEC00FD198F3992355
:101BB000C9F35523B1F3951B550BBB27AA27621711
:101BC0007307840738F09F5F5F4F220F331F441F56
:101BD000AA1FA9F333D00E2E3AF0E0E830D091508E
:101BE0005040E695001CCAF729D0FE2F27D0660F7B
:101BF000771F881FBB1F261737074807AB07B0E8BA
:101C000009F0BB0B802DBF01FF2793585F4F2AF0CF
:101C10009E3F510568F0B1C0FBC05F3FECF3983EBA
:101C2000DCF3869577956795B795F7959F5FC9F72C
:101C3000880F911D9695879597F90895E1E0660FB5
:101C4000771F881FBB1F621773078407BA0720F02E
:101C5000621B730B840BBA0BEE1F88F7E095089597
:101C6000BCD088F09F5790F0B92F9927B751A0F0BA
:101C7000D1F0660F771F881F991F1AF0BA95C9F720
:101C800012C0B13081F0C3D0B1E00895C0C0672F59
:101C9000782F8827B85F39F0B93FCCF386957795D0
:101CA0006795B395D9F73EF49095809570956195B9
:101CB0007F4F8F4F9F4F0895E89409C097FB3EF4E4
:101CC00090958095709561957F4F8F4F9F4F992389
:101CD000A9F0F92F96E9BB279395F6958795779507
:101CE0006795B795F111F8CFFAF4BB0F11F460FFC7
:101CF0001BC06F5F7F4F8F4F9F4F16C0882311F01F
:101D000096E911C0772321F09EE8872F762F05C032
:101D1000662371F096E8862F70E060E02AF09A95CD
:101D2000660F771F881FDAF7880F9695879597F9C2
:101D30000895990F0008550FAA0BE0E8FEEF16165C
:101D40001706E807F907C0F012161306E407F507AF
:101D500098F0621B730B840B950B39F40A2661F023
:101D6000232B242B252B21F408950A2609F4A140C6
:101D7000A6958FEF811D811D089597F99F6780E8D3
:101D800070E060E008959FEF80EC089500240A94CD
:101D90001616170618060906089500240A94121646
:101DA0001306140605060895092E0394000C11F479
:101DB000882352F0BB0F40F4BF2B11F460FF04C026
:101DC0006F5F7F4F8F4F9F4F089557FD9058440F7F
:101DD000551F59F05F3F71F04795880F97FB991F8A
:101DE00061F09F3F79F08795089512161306140647
:101DF000551FF2CF4695F1DF08C0161617061806D4
:101E0000991FF1CF86957105610508940895E894AE
:101E1000BB2766277727CB0197F908958ADF08F457
:101E20008FEF08950BD0C0CFB1DF28F0B6DF18F0E8
:101E3000952309F0A2CFA7CF1124EACFC6DFA0F3E4
:101E4000959FD1F3950F50E0551F629FF001729F4F
:101E5000BB27F00DB11D639FAA27F00DB11DAA1F6E
:101E6000649F6627B00DA11D661F829F2227B00DBB
:101E7000A11D621F739FB00DA11D621F839FA00D46
:101E8000611D221F749F3327A00D611D231F849F96
:101E9000600D211D822F762F6A2F11249F575040ED
:101EA0008AF0E1F088234AF0EE0FFF1FBB1F661F88
:101EB000771F881F91505040A9F79E3F510570F041
:101EC0005CCFA6CF5F3FECF3983EDCF38695779529
:101ED0006795B795F795E7959F5FC1F7FE2B880F3C
:101EE000911D9695879597F9089523DF880B990B97
:101EF0000895991B79E004C0991F961708F0961B66
:101F0000881F7A95C9F780950895A1E21A2EAA1B19
:101F1000BB1BFD010DC0AA1FBB1FEE1FFF1FA21799
:101F2000B307E407F50720F0A21BB30BE40BF50B96
:101F3000661F771F881F991F1A9469F7609570951F
:101F4000809590959B01AC01BD01CF010895EE0FE6
:101F5000FF1F0590F491E02D0994DC0101C06D9301
:101F600041505040E0F70895E199FECF9FBB8EBBF2
:101F7000E09A99278DB30895262FE199FECF9FBB54
:101F80008EBB2DBB0FB6F894E29AE19A0FBE019674
:061F90000895F894FFCF54
:101F96001F007F002000800020563A0020413A00B2
:101FA60057683A0041683A00526573657400526F8B
:101FB60074617465000F3A0030303A30303A303090
:101FC60000000000006C09950A8A088D080D0A00B9
:101FD6006E616E00696E66006F7666000000000036
:0E1FE600190D950ABC0CF80C8E0CA80C9A0C68
:00000001FF
