:100000004DC171C170C16FC16EC16DC16CC16BC199
:100010006AC107CC68C1EDC91ECA65C164C163C1AC
:1000200062C190C660C1000000000008000000002E
:100030001C080000002A1C080000082A1C080008F0
:10004000082A1C080008082A1C000008082A0000CA
:100050000008080000000008000000000030483AD6
:10006000060E2629792926407F050507407F0525AC
:100070003F5A3CE73C5A7F3E1C1C08081C1C3E7F34
:1000800014227F22145F5F005F5F06097F017F00FB
:100090006689956A606060606094A2FFA29408041B
:1000A0007E040810207E201008082A1C08081C2A3C
:1000B00008081E101010100C1E0C1E0C30383E3894
:1000C00030060E3E0E06000000000000005F00003B
:1000D0000007000700147F147F14242A7F2A1223AC
:1000E0001308646236495620500008070300001CBC
:1000F0002241000041221C002A1C7F1C2A08083EC5
:1001000008080080703000080808080800006060D7
:100110000020100804023E5149453E00427F400045
:1001200072494949462141494D331814127F10271D
:10013000454545393C4A494931412111090736496C
:10014000494936464949291E000014000000403440
:100150000000000814224114141414140041221445
:100160000802015909063E415D594E7C1211127C6C
:100170007F494949363E414141227F4141413E7FCD
:10018000494949417F090909013E414151737F08AD
:1001900008087F00417F41002040413F017F081453
:1001A00022417F404040407F021C027F7F040810B4
:1001B0007F3E4141413E7F090909063E4151215E92
:1001C0007F09192946264949493203017F01033F26
:1001D0004040403F1F2040201F3F4038403F6314B5
:1001E00008146303047804036159494D43007F41B7
:1001F00041410204081020004141417F04020102F4
:100200000440404040400003070800205454784018
:100210007F284444383844444428384444287F38AC
:100220005454541800087E090218A4A49C787F082E
:1002300004047800447D40002040403D007F1028A9
:10024000440000417F40007C047804787C0804046A
:10025000783844444438FC1824241818242418FC02
:100260007C08040408485454542404043F44243CA7
:100270004040207C1C2040201C3C4030403C442816
:100280001028444C9090907C4464544C44000836B0
:100290004100000077000000AE04590A11241FBE7F
:1002A000CFE5D4E0DEBFCDBF10E0A0E6B0E0E8E8E7
:1002B000FFE102C005900D92A23DB107D9F723E0FE
:1002C000A2EDB0E001C01D92AE39B207E1F711E036
:1002D000CEE4D1E003C02197FE0132DECC34D10759
:1002E000D1F713D94FCE8CCE1092E2001092E300DA
:1002F0001092E4001092E5001092DE001092DF00F0
:100300001092E0001092E100D6DA6093EA00709358
:10031000EB008093EC009093ED006093E600709307
:10032000E7008093E8009093E9001092D90080B331
:1003300090E0809590959595879595958795837094
:100340008093DA001092DD00089560E87AE186E09B
:1003500090E0A2D452D383ED90E0DFD754D36093E2
:10036000EE007093EF008093F0009093F100929A6A
:100370008A98939A8B9880E090E0EFDD8093DB0081
:100380008F3F29F0682F83ED90E052D505C083EDB3
:1003900090E04BD58093DB0081E090E0DEDD809340
:1003A000DC008F3F29F0682F83ED90E034D505C045
:1003B00083ED90E02DD58093DC0096CF8F929F92B5
:1003C000AF92BF92EF92FF920F931F93CF93DF9361
:1003D0007B01D82FC92F49015A01CFDB87FF11C0FC
:1003E000A50194015058B7018D2F9C2F10DD1816D0
:1003F00044F480E2F801808360E070E080E090E007
:100400002EC02FE632E143E85AE3B7018D2F9C2F2F
:10041000B4DB87FF08C085E7F801808320E034E281
:1004200044E759E411C020E030E040E85FE3B70161
:100430008D2F9C2FA2DB87FF0CC08DE6F8018083F7
:1004400020E030E04AE754E4B7018D2F9C2FE3DC35
:1004500006C080E2F8018083B7018D2F9C2F8B01AD
:100460009C01C901B801DF91CF911F910F91FF90BD
:10047000EF90BF90AF909F908F9008954F925F92B2
:100480006F927F928F929F92AF92BF92CF92DF92A4
:10049000EF92FF920F931F93CF93DF93CDB7DEB709
:1004A0006A970FB6F894DEBF0FBECDBF8091D20021
:1004B0008F5F6BE017DD9093D200FDD94B015C019B
:1004C0004090EA005090EB006090EC007090ED00DE
:1004D00060E083ED90E01BD76091EE007091EF003B
:1004E0008091F0009091F1009E01265F3F4F7901CD
:1004F0008E01025F1F4F285F3F4FAE014A5E5F4F84
:10050000D4D2882309F42BC1C501B401641975093B
:1005100086099709CADB20E03AEB4BE55AE431DB68
:100520006B017C0140E060E083ED90E066D46E8971
:100530007F89888D998D045F1F4F2FE632E143E854
:100540005AE33CDF6E8B7F8B888F998F60E283ED5F
:1005500090E026D86A8D83ED90E022D868E670E0BE
:1005600083ED90E01CD84E895F89688D798D22E0FB
:1005700030E083ED90E045D94A845B846C847D84CF
:10058000A7019601C301B20146DC9B01AC01609159
:10059000DE007091DF008091E0009091E10089DA47
:1005A0006093DE007093DF008093E0009093E100A1
:1005B0002DEB37E346E855E3C301B201FFDE6A875E
:1005C0007B878C879D8760E283ED90E0E9D76A8D19
:1005D00083ED90E0E5D76CE670E083ED90E0DFD747
:1005E0004A855B856C857D8522E030E083ED90E077
:1005F00008D92E853F8548895989C701B6010BDC8A
:100600002091E2003091E3004091E4005091E50038
:1006100050DA6093E2007093E3008093E4009093DB
:10062000E5002DEB37E346E855E3C8DE6E877F87AC
:10063000888B998B6A8D83ED90E0B2D760E770E08C
:1006400083ED90E0ACD74E855F856889798922E09B
:1006500030E083ED90E0D5D86091DE007091DF004E
:100660008091E0009091E1002DEB37E346E855E3FF
:10067000A5DE6E877F87888B998B6A8D83ED90E0EE
:100680008FD765E770E083ED90E089D74E855F8571
:100690006889798922E030E083ED90E0B2D889E082
:1006A000EAE8F0E0DE01119601900D928A95E1F7FB
:1006B0008091E6009091E700A091E800B091E900F8
:1006C000A5019401281B390B4A0B5B0BCA01B90128
:1006D00028EE33E040E050E011DC69017A01CA0104
:1006E000B90120E13EE040E050E008DC822F1AE052
:1006F000612FF8DB805D8983905D9A839CE3492EAE
:10070000512C612C712CC701B601A3019201F6DBBB
:10071000F62ECA01B901A3019201F0DB862F612FE9
:10072000E1DB20E3280F2C83905D9D838F2DDADBA6
:10073000805D8F83905D988740E06DE083ED90E071
:100740005CD3BE016F5F7F4F83ED90E028D780922E
:10075000EA009092EB00A092EC00B092ED0020B382
:1007600030E0209530953595279535952795122FB2
:1007700013709091DA00191709F458C08091D900CC
:10078000133071F5813031F08230D9F081114BC0D6
:10079000ABDD49C08091DB00882341F01092DB0083
:1007A00060E083ED90E044D360E008C082E0809395
:1007B000DB0062E083ED90E03BD362E080E090E01C
:1007C0000DC081E09091DD00911180E08093DD000B
:1007D000811129C06091DC0081E090E0C6DB23C07C
:1007E0004091DD0041111FC0913079F420FD1BC004
:1007F0009091DB00911111C08F5F8093D9008330FD
:1008000094F082E08093D9000EC0923061F421FD13
:100810000AC09091DB00923079F381508093D90027
:1008200087FD1092D9001093DA0029C08091DD0075
:10083000813029F5113029F48091DB00882339F0CB
:1008400010C01230E1F48091DB00823039F48091E5
:10085000DC008F5F8F3F61F48EEF0AC0882319F0B0
:100860000EC0823061F48091DC00815009F481E097
:100870008093DC006091DC0083ED90E0CCD280912D
:10088000DD0081110CC04091D9004F5F6DE083ED18
:1008900090E0B3D26091D20083ED90E081D68DE0FC
:1008A00089838A838B838091D900E1E0F0E0EC0FAB
:1008B000FD1FE80FF11D87FDFA958EE0808341E072
:1008C000698183ED90E099D26AE770E083ED90E072
:1008D00066D642E06A8183ED90E08FD260E870E0F6
:1008E00083ED90E05CD643E06B8183ED90E085D2B0
:1008F00067E870E083ED90E052D68091DD008130B2
:1009000021F469E183ED90E04BD64AE050E060913C
:10091000DC0083ED90E0A1D68091DD00813021F4F0
:1009200068E183ED90E03CD683ED90E037D56A96A0
:100930000FB6F894DEBF0FBECDBFDF91CF911F91F0
:100940000F91FF90EF90DF90CF90BF90AF909F906E
:100950008F907F906F905F904F900895E3EDF0E05F
:100960001382128287E990E091838083148215823A
:1009700008951F93CF93DF9300D0CDB7DEB7182F24
:1009800060E070E080E4BED1812F95D161E070E03D
:1009900080E4B8D160E0CE0101969AD161E0CE0149
:1009A000029696D1A9D1898190E0982F88272A8133
:1009B000820F911D0F900F90DF91CF911F9108959D
:1009C0001F93CF93DF93182FEB0160E070E080E47A
:1009D00099D1812F70D18D2F6ED18C2F6CD1DF9159
:1009E000CF911F9189C180E0C4DF0895BC0180E0F0
:1009F000E7CFF9DF9068FADF0895FBCF85E0B9CF44
:100A0000BC0185E0DDCFCF93DF9382E690E1F8DF94
:100A1000F5DFEC018FE999E1E9DFBE0180E090E0CC
:100A200044D92DEC3CEC4CEC5DE3F5D99B01AC01D9
:100A30006CEA75EC87E29DE3A4D8DF91CF9108952D
:100A4000CF92DF92EF92FF920F931F93CF93DF939A
:100A50006C017B01EA01890182E08BDF80FD1BC014
:100A600081FFFACFFC0183E0F695E7958A95E1F7DF
:100A7000D601ED93FC9381E07CDFF70191838083C5
:100A800084E077DFD8018D939C9383E072DF9983B4
:100A9000888381E001C080E0DF91CF911F910F91A9
:100AA000FF90EF90DF90CF9008954F925F926F92FA
:100AB0007F929F92AF92BF92CF92DF92EF92FF927E
:100AC0000F931F93CF93DF93CDB7DEB728970FB661
:100AD000F894DEBF0FBECDBF2B013C015A01690166
:100AE0009E012F5F3F4FAE014D5F5F4FBE016B5FB9
:100AF0007F4FCE010796A4DF982E882309F44DC0BE
:100B00006F817885072E000C880B990BD0D82FE6C3
:100B100032E143E85BE37FD9F5016083718382832F
:100B200093836D817E81072E000C880B990BBFD8B3
:100B30002CEA35EC47E257E36ED9F6016083718306
:100B40008283938369817A81072E000C880B990B2D
:100B5000AED89B01AC01C301B2015DD9F70160833E
:100B600071838283938320E030E040EA51E4C30143
:100B7000B20151D96B017C018B819C81BC01990F21
:100B8000880B990B94D89B01AC01C701B60143D9DE
:100B9000F8016083718382839383892D28960FB631
:100BA000F894DEBF0FBECDBFDF91CF911F910F91A3
:100BB000FF90EF90DF90CF90BF90AF909F907F908D
:100BC0006F905F904F9008959B01AC01233D86E7A5
:100BD00038074105510590F081B18C7F81B960E003
:100BE00074E284EF90E08AD9DA01C9014097A10943
:100BF000B109B695A795979587954CC027368EE194
:100C0000380741055105B0F081B18C7F81B9089A50
:100C100060E074E284EF90E071D9DA01C901409795
:100C2000A109B10943E0B695A795979587954A958F
:100C3000D1F730C0253A87E0380741055105B0F0BB
:100C400081B18C7F81B9099A60E074E284EF90E011
:100C500055D9DA01C9014097A109B10935E0B69526
:100C6000A795979587953A95D1F714C081B1836080
:100C700081B960E074E284EF90E040D9DA01C90103
:100C80004097A109B10927E0B695A7959795879553
:100C90002A95D1F780B9089597CF83B984E886BFA4
:100CA000089506B607FEFDCF91B1987F81E0983296
:100CB00009F080E0089583B984E886BF06B607FE90
:100CC000FDCF91B1987F81E0983209F080E00895DE
:100CD000FC01662311F094E801C094EC96BF06B6BF
:100CE00007FEFDCF91B1907F903521F483B18083D1
:100CF00081E0089580E0089584E986BF06B604FC8B
:100D0000FDCF089594EA96BF06B607FEFDCF91B1D8
:100D1000987F983029F0903119F0EEDF80E0089547
:100D2000880F672B09F0816083B984E886BF06B617
:100D300007FEFDCF81B1887F883111F0803469F7DB
:100D400081E008951F920F920FB60F9211242F93F6
:100D50003F934F935F936F937F938F939F93AF9343
:100D6000BF93EF93FF9381B1887F803761F028F4C0
:100D7000803649F08836F1F406C0883A89F0803B25
:100D800079F08837B9F4E091F400F091F5003097EC
:100D900039F083FB662760F98295817009950CC054
:100DA000E091F200F091F300309721F0829581708C
:100DB000099502C085EC86BFFF91EF91BF91AF917D
:100DC0009F918F917F916F915F914F913F912F9163
:100DD0000F900FBE0F901F90189580E090E008953F
:100DE0000895CF93C82F60E070E08CE38BDF80E044
:100DF00062DF8C2F60DFCF917FCF653108F064E137
:100E0000FC016483443008F043E0FC01458308950D
:100E10008091F6000895CF93C62F81E8E2DF8C2FF2
:100E2000E0DFC093F600CF9108958091F700089518
:100E300062706093F700662319F0623029F008951C
:100E400080EACFDF80EC03C081EACBDF88ECC9DF2A
:100E500080E890E0909367008093660080E290E0E5
:100E600090936500809364008FE790E09093630017
:100E7000809362008FE190E0909361008093600026
:100E800008958F929F92AF92BF92CF92DF92EF928E
:100E9000FF920F931F93CF93DF93D701E0916200EE
:100EA000F0916300E617F7070CF468C180916000C9
:100EB00090916100841795070CF460C1EB012197B4
:100EC0002C0F3D1FEA0121970C0F1D1F37FD56C146
:100ED00017FD54C177FF02C060E070E057FF02C009
:100EE00040E050E0C0916600D09167002C173D07AC
:100EF0000CF09F01E0916400F09165000E171F0750
:100F00000CF08C01CA01E3E095958795EA95E1F72D
:100F1000F80117FD379653E0F595E7955A95E1F7F7
:100F2000FE2E47700770FC01FF27F8126DC0EC9F82
:100F3000C001ED9F900DFC9F900D1124860F971F0F
:100F4000A130B10531F1A230B10599F0AB2B09F018
:100F500015C1EC01C850DF4F685F7040681B790B0A
:100F6000E02FF0E0E855FF4FA42FB0E0A156BF4FAF
:100F700020C0EC01C850DF4F685F7040681B790BE0
:100F8000E02FF0E0E855FF4FA42FB0E0A156BF4F8F
:100F90002DC0EC01C850DF4F685F7040681B790BB3
:100FA000E02FF0E0E855FF4FA42FB0E0A156BF4F6F
:100FB0000EC0CB018C0F9D1F281739070CF4DEC023
:100FC00080819C9189239881892B8993F2CFCB01D1
:100FD0008C0F9D1F281739070CF4D0C080819C917D
:100FE00089238095988189238993F1CFCB018C0F38
:100FF0009D1F281739070CF4C1C080819C9189235B
:10100000988189278993F2CFA130B10569F1A23087
:10101000B105B9F0AB2B09F0B1C0EC9FC001ED9F59
:10102000900DFC9F900D112450E041565F4F4C01F4
:101030008C0E9D1EBE2EAA24AA9410E008551F4FA8
:1010400030C0EC9FC001ED9F900DFC9F900D1124CE
:10105000A42FB0E0A156BF4F4C018C0E9D1EEE2E6A
:1010600010E008551F4F6CC0EC9F6001ED9FD00C45
:10107000FC9FD00C1124A42FB0E0A156BF4FA601B5
:101080004C0F5D1F9E2FE02FF0E08F0108551F4F82
:1010900048012CC0D080D801EC90ED28E0826F5F31
:1010A0007F4F261737070CF469C0FB01E80FF91FC3
:1010B000E850FF4FD080DA01EC90ED28E082640127
:1010C000C60ED71EEB2CE394F601E850FF4FEF1449
:1010D00008F7A082CC0EDD1EF6CFF401808180954A
:1010E000F801E0808E2180836F5F7F4F26173707DE
:1010F0000CF444C08B010C0D1D1D08501F4F8C912A
:101100008095F801E0808E2180835A01A60EB71EDB
:10111000892F8F5F850108501F4F8F15F0F6F8015A
:101120001082AC0EBD1EF5CFFA01E850FF4F6F01E3
:101130004081F80150814527F60140836F5F7F4F62
:1011400026173707DCF0FB01E80FF91FE850FF4FC7
:10115000C080DC90DC24D082F401E60FF71FE85059
:10116000FF4FDE2CAF01485F5040D394DF14E0F610
:10117000C080C094C082EC0FFD1FF4CFDF91CF91EF
:101180001F910F91FF90EF90DF90CF90BF90AF90A5
:101190009F908F9008952F923F924F925F926F92FF
:1011A0007F928F929F92AF92BF92CF92DF92EF92F7
:1011B000FF920F931F93CF93DF93CDB7DEB727979F
:1011C0000FB6F894DEBF0FBECDBF9B838A836B0141
:1011D0004A0109833701809162009091630086176C
:1011E00097070CF444C080916000909161008417CF
:1011F00095070CF43CC035E0239F100111241F8299
:101200001E82A02E000FBB08EE81FF81E20DF31DB0
:10121000EA5DFF4FE49188E0482E512C8E2F90E03C
:101220009D838C838C819D81052C02C0959587952B
:101230000A94E2F780FF0EC0252D39813203A00108
:101240001124480D591D730185019501B6018A814C
:101250009B8117DE53944A944110E4CFCA0CDB1CE7
:101260008E819F8101969F838E83059769F62796CD
:101270000FB6F894DEBF0FBECDBFDF91CF911F91A7
:101280000F91FF90EF90DF90CF90BF90AF909F9025
:101290008F907F906F905F904F903F902F90089528
:1012A000EF92FF920F93CF93DF936D3019F4FC010F
:1012B000148225C0262FEC014D816A3031F44F5F36
:1012C0004D834430E0F01D821AC06C81F8E04F9FDE
:1012D000A001112486E0689FB0011124E12CF12CBB
:1012E00001E0CE0158DF8C818F5F853110F48C8353
:1012F00006C01C828D818F5F8D83843020F781E052
:1013000090E0DF91CF910F91FF90EF90089570E002
:1013100040E052E088EF90E019C6CF93DF93EC01F4
:10132000B89AC098C09A8EEA5CDD8EEA5ADD85EDE7
:1013300058DD80E856DD88EA54DD8FE152DD83ED2B
:1013400050DD80E04EDD80E44CDD8DE84ADD84E157
:1013500048DD80E246DD80E044DD80EA42DD80EC6D
:1013600040DD8AED3EDD82E03CDD6FE8CE0153DDFD
:1013700089ED37DD81EF35DD8BED33DD80E431DD67
:1013800084EA2FDD86EA2DDD60E0CE0151DD8FEAB3
:1013900028DD60E0CE01DF91CF91B9CFCF93DF930D
:1013A00081E21FDD80E01DDD8FE71BDD82E219DDBC
:1013B00080E017DD83E015DD60E070E08CE3A2DC07
:1013C0008823A1F080E469DC8091F70080FF04C0ED
:1013D00068DCDF91CF9190CCC8EFD0E062DC8991DE
:1013E0005CDC82E0C83FD807C9F7F2CFDF91CF912C
:1013F00008951F920F920FB60F9211242F938F937F
:101400009F93EF93FF93E0910803F091090380818C
:10141000E0910E03F0910F0382FD12C09081809144
:1014200011038F5F8F7320911203821751F0E091A7
:101430001103F0E0E850FD4F958F8093110301C038
:101440008081FF91EF919F918F912F910F900FBE0F
:101450000F901F9018951F920F920FB60F921124A4
:101460002F933F934F935F936F937F938F939F93AC
:10147000AF93BF93EF93FF9388EF92E091D2FF91E8
:10148000EF91BF91AF919F918F917F916F915F91FC
:101490004F913F912F910F900FBE0F901F90189575
:1014A00088EF92E034D221E0892B09F420E0822FEA
:1014B0000895E8EFF2E01382128288EE93E0A0E054
:1014C000B0E084839583A683B78383EC90E0918317
:1014D000808380E490E09587848729E230E0378735
:1014E00026872BE230E0318B208B2AE230E0338BF1
:1014F000228B958B848B8CE290E0978B868B118E60
:10150000128E138E148E08950895E1D1FDDF1DD73C
:10151000C4ECDCE0B3D72097E9F336D2FBCFCF920F
:10152000DF92EF92FF920F931F93CF93DF936C01A3
:101530007A018B01C0E0D0E0CE15DF0589F0D8013B
:101540006D918D01D601ED91FC910190F081E02D1E
:10155000C6010995892B11F47E0102C02196ECCFBA
:10156000C701DF91CF911F910F91FF90EF90DF9016
:10157000CF9008956115710579F0FB01019000206D
:10158000E9F73197AF01461B570BDC01ED91FC9158
:101590000280F381E02D099480E090E00895EACF85
:1015A000DC01ED91FC910190F081E02D099460EB5C
:1015B00070E0E0CF4F925F926F927F92EF92FF9236
:1015C0000F931F93CF93DF93CDB7DEB7A1970FB6DD
:1015D000F894DEBF0FBECDBF7C01FA01CB0119A28A
:1015E000223008F42AE08E010F5D1F4F422E512C4D
:1015F000612C712CBF01A301920180D4F901CA01B1
:10160000015011096A3014F4605D01C0695CD801B1
:101610006C93232B242B252B69F7B801C701AADF74
:10162000A1960FB6F894DEBF0FBECDBFDF91CF916C
:101630001F910F91FF90EF907F906F905F904F9070
:1016400008952115310541F4DC01ED91FC910190E3
:10165000F081E02D642F0994ADCF9A01462F50E020
:1016600060E070E0EECF4F925F926F927F928F9228
:101670009F92AF92BF92CF92DF92EF92FF92CF9361
:10168000DF93EC016A017B01B22E9A01AB01C70125
:10169000B60124D4882319F063EB70E024C026013E
:1016A0003701E89477F82FEF3FEF4FE75FE7C3018B
:1016B000B20114D481110CC02FEF3FEF4FE75FE769
:1016C000C301B2015AD218161CF467EB70E00BC0CC
:1016D0002FEF3FEF4FE75FE4C701B60198D318162D
:1016E00094F46BEB70E0CE01DF91CF91FF90EF901F
:1016F000DF90CF90BF90AF909F908F907F906F9032
:101700005F904F9037CF2FEF3FEF4FE75FECC70170
:10171000B60133D287FDE5CF20E030E0A901C70153
:10172000B6012BD287FF09C06DE2CE0139DF4C0133
:10173000F7FAF094F7F8F09402C0812C912CA12CC8
:1017400060E070E080E09FE3AB1439F020E030E02F
:1017500040E251E416D2A394F7CF9B01AC01C7013C
:10176000B601A7D12B013C0174D26B017C019DD243
:101770009B01AC01C301B2019BD12B013C012AE0CA
:10178000B701A601CE0116DF7C01E80CF91CBB20D5
:1017900029F06EE2CE0104DFE80EF91EDB2CDD201D
:1017A00001F120E030E040E251E4C301B20133D363
:1017B0002B013C014ED24B01A12CB12C2AE0B501EA
:1017C000A401CE01F7DEE80EF91EC501B4016DD209
:1017D0009B01AC01C301B2016BD12B013C01DA9436
:1017E000DECFC701DF91CF91FF90EF90DF90CF90D8
:1017F000BF90AF909F908F907F906F905F904F9031
:1018000008950F931F93CF93DF93EC012CDF8C018E
:10181000CE01CDDE800F911FDF91CF911F910F91EF
:1018200008951F920F920FB60F9211242F933F939A
:101830008F939F93AF93BF9380919603909197035B
:10184000A0919803B09199033091950323E0230F61
:101850002D3720F40196A11DB11D05C026E8230FE8
:101860000296A11DB11D209395038093960390933A
:101870009703A0939803B093990380919A03909152
:101880009B03A0919C03B0919D030196A11DB11DE6
:1018900080939A0390939B03A0939C03B0939D0322
:1018A000BF91AF919F918F913F912F910F900FBE5C
:1018B0000F901F9018952FB7F89460919603709130
:1018C000970380919803909199032FBF089578947E
:1018D00083B7826083BF83B7816083BF89B781602C
:1018E00089BF1EBC8EB582608EBD8EB581608EBDF7
:1018F0008FB581608FBD85B5846085BD85B58064F9
:1019000085BD329A319A309A379A1AB80895FC01F7
:10191000918D228D892F90E0805C9F4F821B9109D1
:101920008F7399270895FC01918D828D981731F05E
:10193000828DE80FF11D858D90E008958FEF9FEF68
:101940000895FC01918D828D981761F0828DDF01E1
:10195000A80FB11D5D968C91928D9F5F9F73928FA2
:1019600090E008958FEF9FEF0895FC01538D448D13
:10197000252F30E0842F90E0821B930B541710F03A
:10198000CF9608950197089580E59AE0892B39F064
:1019900080E090E0892B19F083DD811131C3089537
:1019A000FC01848DDF01A80FB11DA35ABF4F2C91FC
:1019B000848D90E001968F739927848FA689B789CB
:1019C0002C93A089B1898C9180648C93938D848DA4
:1019D000981306C00288F389E02D80818F7D808373
:1019E0000895CF93DF93EC01888D8823C1F0EA89B5
:1019F000FB89808185FD05C0A889B9898C9186FD08
:101A00000EC00FB607FCF5CF808185FFF2CFA88905
:101A1000B9898C9185FFEDCFCE01C2DFE8CFDF9190
:101A2000CF910895EF92FF920F931F93CF93DF937F
:101A3000EC0181E0888F9B8D8C8D981305C0E8891F
:101A4000F989808185FD23C0F62E0B8D10E00F5F94
:101A50001F4F0F731127E02E8C8DE8120BC00FB6AD
:101A600007FCFACFE889F989808185FFF5CFCE019F
:101A700097DFF2CF8B8DFE01E80FF11DE35AFF4F88
:101A8000F0820B8FEA89FB898081806207C0EE8932
:101A9000FF896083E889F98980818064808381E09F
:101AA00090E0DF91CF911F910F91FF90EF900895FB
:101AB0005058BB27AA270ED070C161D130F066D133
:101AC00020F031F49F3F11F41EF456C10EF4E0955E
:101AD000E7FB4CC1E92F72D180F3BA176207730795
:101AE0008407950718F071F49EF58AC10EF4E0950D
:101AF0000B2EBA2FA02D0B01B90190010C01CA01C8
:101B0000A0011124FF27591B99F0593F50F4503E72
:101B100068F11A16F040A22F232F342F4427585F64
:101B2000F3CF469537952795A795F0405395C9F77C
:101B30007EF41F16BA0B620B730B840BBAF0915034
:101B4000A1F0FF0FBB1F661F771F881FC2F70EC0D3
:101B5000BA0F621F731F841F48F4879577956795A6
:101B6000B795F7959E3F08F0B3CF9395880F08F08F
:101B70009927EE0F979587950895D4D008F481E0C2
:101B800008950CD00AC102D140F0F9D030F021F410
:101B90005F3F19F0EBC0511134C1EEC00FD198F383
:101BA0009923C9F35523B1F3951B550BBB27AA27DE
:101BB00062177307840738F09F5F5F4F220F331F50
:101BC000441FAA1FA9F333D00E2E3AF0E0E830D01C
:101BD00091505040E695001CCAF729D0FE2F27D01F
:101BE000660F771F881FBB1F261737074807AB07ED
:101BF000B0E809F0BB0B802DBF01FF2793585F4F62
:101C00002AF09E3F510568F0B1C0FBC05F3FECF386
:101C1000983EDCF3869577956795B795F7959F5F26
:101C2000C9F7880F911D9695879597F90895E1E07A
:101C3000660F771F881FBB1F621773078407BA07D9
:101C400020F0621B730B840BBA0BEE1F88F7E09534
:101C50000895BCD088F09F5790F0B92F9927B751BD
:101C6000A0F0D1F0660F771F881F991F1AF0BA9560
:101C7000C9F712C0B13081F0C3D0B1E00895C0C03F
:101C8000672F782F8827B85F39F0B93FCCF3869556
:101C900077956795B395D9F73EF4909580957095B3
:101CA00061957F4F8F4F9F4F0895E89409C097FB30
:101CB0003EF490958095709561957F4F8F4F9F4F23
:101CC0009923A9F0F92F96E9BB279395F695879567
:101CD00077956795B795F111F8CFFAF4BB0F11F42A
:101CE00060FF1BC06F5F7F4F8F4F9F4F16C08823D1
:101CF00011F096E911C0772321F09EE8872F762F07
:101D000005C0662371F096E8862F70E060E02AF047
:101D10009A95660F771F881FDAF7880F9695879533
:101D200097F90895990F0008550FAA0BE0E8FEEF08
:101D300016161706E807F907C0F012161306E4078F
:101D4000F50798F0621B730B840B950B39F40A2688
:101D500061F0232B242B252B21F408950A2609F466
:101D6000A140A6958FEF811D811D089597F99F676A
:101D700080E870E060E008959FEF80EC0895002413
:101D80000A941616170618060906089500240A94E0
:101D900012161306140605060895092E0394000C66
:101DA00011F4882352F0BB0F40F4BF2B11F460FFF5
:101DB00004C06F5F7F4F8F4F9F4F089557FD90581E
:101DC000440F551F59F05F3F71F04795880F97FBFF
:101DD000991F61F09F3F79F08795089512161306B9
:101DE0001406551FF2CF4695F1DF08C016161706E8
:101DF0001806991FF1CF869571056105089408951D
:101E0000E894BB2766277727CB0197F908958ADFE7
:101E100008F48FEF08950BD0C0CFB1DF28F0B6DF04
:101E200018F0952309F0A2CFA7CF1124EACFC6DF7F
:101E3000A0F3959FD1F3950F50E0551F629FF001DD
:101E4000729FBB27F00DB11D639FAA27F00DB11D36
:101E5000AA1F649F6627B00DA11D661F829F2227BF
:101E6000B00DA11D621F739FB00DA11D621F839F46
:101E7000A00D611D221F749F3327A00D611D231F1C
:101E8000849F600D211D822F762F6A2F11249F576A
:101E900050408AF0E1F088234AF0EE0FFF1FBB1F8D
:101EA000661F771F881F91505040A9F79E3F51052C
:101EB00070F05CCFA6CF5F3FECF3983EDCF38695E5
:101EC00077956795B795F795E7959F5FC1F7FE2BD7
:101ED000880F911D9695879597F9089523DF880BB4
:101EE000990B0895991B79E004C0991F961708F083
:101EF000961B881F7A95C9F780950895A1E21A2E3E
:101F0000AA1BBB1BFD010DC0AA1FBB1FEE1FFF1F9D
:101F1000A217B307E407F50720F0A21BB30BE40BED
:101F2000F50B661F771F881F991F1A9469F7609534
:101F30007095809590959B01AC01BD01CF010895EE
:101F4000EE0FFF1F0590F491E02D0994DC0101C014
:101F50006D9341505040E0F70895E199FECF9FBB4B
:101F60008EBBE09A99278DB30895262FE199FECF75
:101F70009FBB8EBB2DBB0FB6F894E29AE19A0FBEC1
:081F800001960895F894FFCFCB
:101F88001F007F0020008000563A2000413A2000C0
:101F980057683A200041683A20005265736574001A
:101FA800526F74617465000F3A0030303A30303A3D
:101FB8003030000000000050098F0AED06F006FFDF
:101FC800FEFCF8F0E0C080000103070F1F3F7FFF11
:101FD8000D0A006E616E00696E66006F766600001D
:101FE800000000120D8F0AB50CF10C870CA10C93A0
:021FF8000C00DB
:00000001FF
