:100000008BC1AFC1AEC1ADC1ACC1ABC1AAC1A9C1A9
:10001000A8C152CBA6C137C968C9A3C1A2C1A1C199
:10002000A0C1C0C79EC10000000000080000000081
:100030001C080000002A1C080000082A1C080008F0
:10004000082A1C080008082A1C000008082A0000CA
:100050000008080000000008000000000030483AD6
:10006000060E2629792926407F050507407F0525AC
:100070003F5A3CE73C5A7F3E1C1C08081C1C3E7F34
:1000800014227F22145F5F005F5F06097F017F00FB
:100090006689956A606060606094A2FFA29408041B
:1000A0007E040810207E201008082A1C08081C2A3C
:1000B00008081E101010100C1E0C1E0C30383E3894
:1000C00030060E3E0E06000000000000005F00003B
:1000D0000007000700147F147F14242A7F2A1223AC
:1000E0001308646236495620500008070300001CBC
:1000F0002241000041221C002A1C7F1C2A08083EC5
:1001000008080080703000080808080800006060D7
:100110000020100804023E5149453E00427F400045
:1001200072494949462141494D331814127F10271D
:10013000454545393C4A494931412111090736496C
:10014000494936464949291E000014000000403440
:100150000000000814224114141414140041221445
:100160000802015909063E415D594E7C1211127C6C
:100170007F494949363E414141227F4141413E7FCD
:10018000494949417F090909013E414151737F08AD
:1001900008087F00417F41002040413F017F081453
:1001A00022417F404040407F021C027F7F040810B4
:1001B0007F3E4141413E7F090909063E4151215E92
:1001C0007F09192946264949493203017F01033F26
:1001D0004040403F1F2040201F3F4038403F6314B5
:1001E00008146303047804036159494D43007F41B7
:1001F00041410204081020004141417F04020102F4
:100200000440404040400003070800205454784018
:100210007F284444383844444428384444287F38AC
:100220005454541800087E090218A4A49C787F082E
:1002300004047800447D40002040403D007F1028A9
:10024000440000417F40007C047804787C0804046A
:10025000783844444438FC1824241818242418FC02
:100260007C08040408485454542404043F44243CA7
:100270004040207C1C2040201C3C4030403C442816
:100280001028444C9090907C4464544C44000836B0
:10029000410000007700000041360800020102041E
:1002A000023C2623263C08047E040804023F020484
:1002B00002011F010201000F000100000700000001
:1002C000008300000080C180008040E0408040202A
:1002D000F020402010F810201008FC081010207E9C
:1002E00020102040FC40204080F880408000F0003A
:1002F000800000E000000000C10000000183010058
:10030000010207020102040F040204081F08040886
:10031000103F1008DE05A30911241FBECFE5D4E06D
:10032000DEBFCDBF10E0A0E6B0E0EEE1FEE102C02E
:1003300005900D92AE3BB107D9F723E0AEEBB0E0EC
:1003400001C01D92A039B207E1F711E0CCE8D1E07D
:1003500003C02197FE013FDDCA38D107D1F71FD86E
:100360005CCD4ECE1092CF001092D0001092D100F2
:100370001092D2001092CB001092CC001092CD00BF
:100380001092CE00E3D96093DC007093DD0080937F
:10039000DE009093DF006093D8007093D9008093C3
:1003A000DA009093DB006093D4007093D5008093C3
:1003B000D6009093D7001092D3001092C60080B35D
:1003C00090E0809590959595879595958795837004
:1003D0008093C7001092CA00089560E87AE186E031
:1003E00090E08AD53AD480EC90E0E1D63CD460939A
:1003F000E0007093E1008093E2009093E300929A12
:100400008A98939A8B9880E090E0F2DC8093C80001
:100410008F3F29F0682F80EC90E040D605C080EC3B
:1004200090E039D68093C80081E090E0E1DC8093D1
:10043000C9008F3F29F0682F80EC90E022D605C0DC
:1004400080EC90E01BD68093C9008CCF8F929F9256
:10045000AF92BF92CF92DF92EF92FF920F931F93D2
:10046000CF93DF936B017C0149015A01E80120E041
:1004700030E0A901CDDA87FF06C0F7FAF094F7F86B
:10048000F09411E001C010E0A5019401C701B6018C
:10049000BFDA87FF06C080E28883C12CD12C7601A9
:1004A00027C02FE632E143E85AE3C701B601B0DACC
:1004B00087FF07C085E7888320E034E244E759E4FA
:1004C0000FC020E030E040E85FE3C701B601A0DAEA
:1004D00087FF0CC08DE6888320E030E04AE754E4D3
:1004E000C701B601E3DB6B017C0102C080E28883B7
:1004F000C701B60111119058DF91CF911F910F9153
:10050000FF90EF90DF90CF90BF90AF909F908F9033
:100510000895CF92DF92EF92FF92CF936B017C010F
:1005200020E030E0A90174DA87FF06C0F7FAF09402
:10053000F7F8F094C1E001C0C0E020E030E04AE705
:1005400054E4C701B601AEDB87FD02C087E017C0E7
:1005500020E030E048EC52E4C701B601A3DB87FDA0
:1005600002C086E00CC020E030E040E251E4C70168
:10057000B60198DB87FD02C085E001C084E08C0FE6
:10058000CF91FF90EF90DF90CF9008954F925F92C0
:100590006F927F928F929F92AF92BF92CF92DF9293
:1005A000EF92FF920F931F93CF93DF93CDB7DEB7F8
:1005B0006A970FB6F894DEBF0FBECDBF8091BF0023
:1005C0008F5F6BE0DADB9093BF00C0D84B015C011A
:1005D0004090DC005090DD006090DE007090DF0005
:1005E00060E080EC90E0DDD56091E0007091E1008A
:1005F0008091E2009091E3009E01265F3F4F7901D8
:100600008E01025F1F4F285F3F4FAE014A5E5F4F72
:100610007CD3882309F47AC140E060E080EC90E06C
:1006200022D56E897F89888D998D045F1F4F2FE6B3
:1006300032E143E85AE30ADF6E8B7F8B888F998F14
:1006400068E670E080EC90E0F4D66E897F89888D52
:10065000998D5FDF2AE030E0281B31092430310515
:100660001CF01AE0181B01C013E0C501B4016419A5
:1006700075098609970964DA20E03AEB4BE55AE4FC
:10068000CBD96B017C01612F80EC90E0E6D44E89E0
:100690005F89688D798D22E030E080EC90E00BD8A6
:1006A0006A8D80EC90E0D0D64A845B846C847D8433
:1006B000A7019601C301B201F9DA9B01AC01609177
:1006C000CB007091CC008091CD009091CE003CD9B0
:1006D0006093CB007093CC008093CD009093CE00BC
:1006E0008E01065E1F4F2DEB37E346E855E3C3014D
:1006F000B201ACDE6A877B878C879D876CE670E0F1
:1007000080EC90E096D66A857B858C859D8501DF9F
:100710004AE050E0481B51094430510524F09AE06A
:10072000692F681B01C063E080EC90E096D44A8595
:100730005B856C857D8522E030E080EC90E0BBD766
:100740006A8D80EC90E080D62E853F854889598956
:10075000C701B601ABDA2091CF003091D0004091B3
:10076000D1005091D200F0D86093CF007093D000A8
:100770008093D1009093D2008E01065E1F4F2DEB27
:1007800037E346E855E362DE6E877F87888B998B77
:1007900060E770E080EC90E04CD66E857F858889BC
:1007A0009989B7DE2AE030E0281B31092430310571
:1007B0001CF06AE0681B01C063E080EC90E04DD45F
:1007C0004E855F856889798922E030E080EC90E091
:1007D00072D76A8D80EC90E037D66091CB00709133
:1007E000CC008091CD009091CE008E01065E1F4F0F
:1007F0002DEB37E346E855E329DE6E877F87888B4C
:10080000998B64E770E080EC90E013D66E857F856D
:10081000888999897EDE2AE030E0281B310924305E
:1008200031051CF06AE0681B01C063E080EC90E0D9
:1008300014D44E855F856889798922E030E080ECA8
:1008400090E039D76A8D80EC90E0FED589E0E8E849
:10085000F0E0DE01119601900D928A95E1F780910A
:10086000D8009091D900A091DA00B091DB00A501E9
:100870009401281B390B4A0B5B0BCA01B90128EE06
:1008800033E040E050E085DA69017A01CA01B9013C
:1008900020E13EE040E050E07CDA822F1AE0612F58
:1008A0006CDA805D8983905D9A839CE3492E512C9C
:1008B000612C712CC701B601A30192016ADAF62EF0
:1008C000CA01B901A301920164DA862F612F55DABA
:1008D00020E3280F2C83905D9D838F2D4EDA805D61
:1008E0008F83905D988740E06DE080EC90E0BBD313
:1008F000BE016F5F7F4F80EC90E09BD58092DC0063
:100900009092DD00A092DE00B092DF0020B330E0D4
:10091000209530953595279535952795122F13708D
:100920009091C700191709F460C08092D40090928A
:10093000D500A092D600B092D7008091C6001330A7
:1009400071F5813031F08230D9F081114BC00ADD70
:1009500049C08091C800882341F01092C80060E02F
:1009600080EC90E09BD360E008C082E08093C800F8
:1009700062E080EC90E092D362E080E090E00DC015
:1009800081E09091CA00911180E08093CA008111AA
:1009900029C06091C90081E090E032DA23C0409123
:1009A000CA0041111FC0913079F420FD1BC0909105
:1009B000C800911111C08F5F8093C600833094F0FE
:1009C00082E08093C6000EC0923061F421FD0AC01F
:1009D0009091C800923079F381508093C60087FDD2
:1009E0001092C6001093C70028C08091CA008130C1
:1009F00021F5113029F48091C800882339F00FC007
:100A00001230D9F48091C800823031F48091C9004D
:100A1000882371F081500AC0882319F00EC08230FB
:100A200061F48091C9008E3F18F48F5F8093C900F4
:100A30006091C90080EC90E024D38091CA008111BC
:100A40000CC04091C6004F5F6DE080EC90E00BD38E
:100A50006091BF0080EC90E0EDD48DE089838A83C3
:100A60008B838091C600E1E0F0E0EC0FFD1FE80F02
:100A7000F11D87FDFA958EE0808341E0698180EC6D
:100A800090E0F1D268E770E080EC90E0D2D442E0F0
:100A90006A8180EC90E0E7D26EE770E080EC90E055
:100AA000C8D443E06B8180EC90E0DDD265E870E073
:100AB00080EC90E0BED48091CA00813061F48091D6
:100AC000C9008E3F20F46091BF00605801C06FE5FF
:100AD00080EC90E0AFD44AE050E06091C90080EC37
:100AE00090E015D58091CA00813061F48091C900F1
:100AF000823020F06091BF00655701C06FE580EC47
:100B000090E098D48091D4009091D500A091D60027
:100B1000B091D700881A990AAA0ABB0A8091D3001B
:100B200031E283163FEB930632E0A306B10408F1ED
:100B300011111FC0811110C081E08093D30060911A
:100B4000C9006093BE008091CA00813029F481E021
:100B500090E056D91092CA008091C900882319F0FC
:100B600081508093C9006091C90080EC90E089D2E7
:100B70000BC0882349F06091BE006093C90080ECEF
:100B800090E07FD21092D30080EC90E051D36A962F
:100B90000FB6F894DEBF0FBECDBFDF91CF911F918E
:100BA0000F91FF90EF90DF90CF90BF90AF909F900C
:100BB0008F907F906F905F904F900895E0ECF0E001
:100BC0001382128285E990E09183808314821582DA
:100BD00008951F93CF93DF9300D0CDB7DEB7182FC2
:100BE00060E070E080E4BED1812F95D161E070E0DB
:100BF00080E4B8D160E0CE0101969AD161E0CE01E7
:100C0000029696D1A9D1898190E0982F88272A81D0
:100C1000820F911D0F900F90DF91CF911F9108953A
:100C20001F93CF93DF93182FEB0160E070E080E417
:100C300099D1812F70D18D2F6ED18C2F6CD1DF91F6
:100C4000CF911F9189C180E0C4DF0895BC0180E08D
:100C5000E7CFF9DF9068FADF0895FBCF85E0B9CFE1
:100C6000BC0185E0DDCFCF93DF9382E690E1F8DF32
:100C7000F5DFEC018FE999E1E9DFBE0180E090E06A
:100C80005FD72DEC3CEC4CEC5DE310D89B01AC0144
:100C90006CEA75EC87E29DE3BFD6DF91CF910895B2
:100CA000CF92DF92EF92FF920F931F93CF93DF9338
:100CB0006C017B01EA01890182E08BDF80FD1BC0B2
:100CC00081FFFACFFC0183E0F695E7958A95E1F77D
:100CD000D601ED93FC9381E07CDFF7019183808363
:100CE00084E077DFD8018D939C9383E072DF998352
:100CF000888381E001C080E0DF91CF911F910F9147
:100D0000FF90EF90DF90CF9008954F925F926F9297
:100D10007F929F92AF92BF92CF92DF92EF92FF921B
:100D20000F931F93CF93DF93CDB7DEB728970FB6FE
:100D3000F894DEBF0FBECDBF2B013C015A01690103
:100D40009E012F5F3F4FAE014D5F5F4FBE016B5F56
:100D50007F4FCE010796A4DF982E882309F44DC05B
:100D60006F817885072E000C880B990BEBD62FE648
:100D700032E143E85BE39AD7F501608371838283B4
:100D800093836D817E81072E000C880B990BDAD638
:100D90002CEA35EC47E257E389D7F601608371838B
:100DA0008283938369817A81072E000C880B990BCB
:100DB000C9D69B01AC01C301B20178D7F7016083AA
:100DC00071838283938320E030E040EA51E4C301E1
:100DD000B2016CD76B017C018B819C81BC01990FA6
:100DE000880B990BAFD69B01AC01C701B6015ED74A
:100DF000F8016083718382839383892D28960FB6CF
:100E0000F894DEBF0FBECDBFDF91CF911F910F9140
:100E1000FF90EF90DF90CF90BF90AF909F907F902A
:100E20006F905F904F9008959B01AC01233D86E742
:100E300038074105510590F081B18C7F81B960E0A0
:100E400074E284EF90E0A5D7DA01C9014097A109C7
:100E5000B109B695A795979587954CC027368EE131
:100E6000380741055105B0F081B18C7F81B9089AEE
:100E700060E074E284EF90E08CD7DA01C90140971A
:100E8000A109B10943E0B695A795979587954A952D
:100E9000D1F730C0253A87E0380741055105B0F059
:100EA00081B18C7F81B9099A60E074E284EF90E0AF
:100EB00070D7DA01C9014097A109B10935E0B695AB
:100EC000A795979587953A95D1F714C081B183601E
:100ED00081B960E074E284EF90E05BD7DA01C90188
:100EE0004097A109B10927E0B695A79597958795F1
:100EF0002A95D1F780B9089597CF83B984E886BF42
:100F0000089506B607FEFDCF91B1987F81E0983233
:100F100009F080E0089583B984E886BF06B607FE2D
:100F2000FDCF91B1987F81E0983209F080E008957B
:100F3000FC01662311F094E801C094EC96BF06B65C
:100F400007FEFDCF91B1907F903521F483B180836E
:100F500081E0089580E0089584E986BF06B604FC28
:100F6000FDCF089594EA96BF06B607FEFDCF91B176
:100F7000987F983029F0903119F0EEDF80E00895E5
:100F8000880F672B09F0816083B984E886BF06B6B5
:100F900007FEFDCF81B1887F883111F0803469F779
:100FA00081E008951F920F920FB60F9211242F9394
:100FB0003F934F935F936F937F938F939F93AF93E1
:100FC000BF93EF93FF9381B1887F803761F028F45E
:100FD000803649F08836F1F406C0883A89F0803BC3
:100FE00079F08837B9F4E091E600F091E7003097A6
:100FF00039F083FB662760F98295817009950CC0F2
:10100000E091E400F091E500309721F08295817045
:10101000099502C085EC86BFFF91EF91BF91AF911A
:101020009F918F917F916F915F914F913F912F9100
:101030000F900FBE0F901F90189580E090E00895DC
:101040000895CF93C82F60E070E08CE38BDF80E0E1
:1010500062DF8C2F60DFCF917FCF653108F064E1D4
:10106000FC0164830895653108F064E1FC01648348
:10107000443008F043E0FC01458308958091E80086
:101080000895CF93C62F81E8DCDF8C2FDADFC09381
:10109000E800CF9108958091E9000895627060930F
:1010A000E900662319F0623029F0089580EAC9DF6B
:1010B00080EC03C081EAC5DF88ECC3DF80E890E004
:1010C000909367008093660080E290E090936500C3
:1010D000809364008FE790E09093630080936200B8
:1010E0008FE190E090936100809360000895FC018F
:1010F0002481F5E06F9FB0011124FC0135818091BE
:10110000660090916700389FD001399FB00D11247F
:10111000F6E02F9FA00DB11D1124A651BF4F80E016
:1011200090E0FC01E60FF71FEA5DFF4FE4914130CC
:10113000510549F04230510551F04115510551F426
:101140002C91E22B06C0E0952C91E22302C02C9159
:10115000E227EC93019611968530910511F70895D9
:10116000CF93DF936D3019F4FC01148215C0EC01AC
:101170006A3039F48D818F5F8D83843068F01D82F1
:101180000BC040E050E0B3DF8C818F5F853110F4FD
:101190008C8302C01C82EECF81E090E0DF91CF9182
:1011A000089570E040E052E08AEE90E01AC6CF93D6
:1011B000DF93EC01B89AC098C09A8EEA42DF8EEABB
:1011C00040DF85ED3EDF80E83CDF88EA3ADF8FE1F3
:1011D00038DF83ED36DF80E034DF80E432DF8DE816
:1011E00030DF84E12EDF80E22CDF80E02ADF80EA3E
:1011F00028DF80EC26DF8AED24DF82E022DF6FE843
:10120000CE013FDF89ED1DDF81EF1BDF8BED19DFA5
:1012100080E417DF84EA15DF86EA13DF60E0CE01A1
:101220003DDF8FEA0EDF60E0CE01DF91CF91B9CFD5
:10123000CF93DF9381E205DF80E003DF8FE701DFFB
:1012400082E2FFDE80E0FDDE83E0FBDE60E070E056
:101250008CE388DE8823A1F080E44FDE8091E900F2
:1012600080FF04C04EDEDF91CF9176CECAEED0E093
:1012700048DE899142DE82E0CA3ED807C9F7F2CF44
:10128000DF91CF9108951F920F920FB60F92112404
:101290002F938F939F93EF93FF93E091FA02F09136
:1012A000FB028081E0910003F091010382FD12C0F6
:1012B0009081809103038F5F8F73209104038217C5
:1012C00051F0E0910303F0E0E651FD4F958F8093DC
:1012D000030301C08081FF91EF919F918F912F9126
:1012E0000F900FBE0F901F9018951F920F920FB680
:1012F0000F9211242F933F934F935F936F937F939C
:101300008F939F93AF93BF93EF93FF938AEE92E0F7
:1013100092D2FF91EF91BF91AF919F918F917F9169
:101320006F915F914F913F912F910F900FBE0F9052
:101330001F9018958AEE92E035D221E0892B09F4AE
:1013400020E0822F0895EAEEF2E01382128288EE06
:1013500093E0A0E0B0E084839583A683B78380EB1D
:1013600090E09183808380E490E09587848729E2F0
:1013700030E0378726872BE230E0318B208B2AE262
:1013800030E0338B228B958B848B8CE290E0978BB3
:10139000868B118E128E138E148E08950895E2D1CD
:1013A000FDDF1BD8CFE0DCE0F1D82097E9F337D29E
:1013B000FBCFCF92DF92EF92FF920F931F93CF93C9
:1013C000DF936C017A018B01C0E0D0E0CE15DF0520
:1013D00089F0D8016D918D01D601ED91FC910190BC
:1013E000F081E02DC6010995892B11F47E0102C020
:1013F0002196ECCFC701DF91CF911F910F91FF9004
:10140000EF90DF90CF9008956115710579F0FB01A1
:1014100001900020E9F73197AF01461B570BDC0123
:10142000ED91FC910280F381E02D099480E090E041
:101430000895EACFDC01ED91FC910190F081E02D5F
:1014400009946DE970E0E0CF0F931F93CF93DF9382
:10145000EC01F0DF8C01CE01F4DF800F911FDF91F2
:10146000CF911F910F9108954F925F926F927F924B
:10147000EF92FF920F931F93CF93DF93CDB7DEB719
:10148000A1970FB6F894DEBF0FBECDBF7C01FA0165
:10149000CB0119A2223008F42AE08E010F5D1F4F04
:1014A000422E512C612C712CBF01A301920171D4E9
:1014B000F901CA01015011096A3014F4605D01C0DC
:1014C000695CD8016C93232B242B252B69F7B80179
:1014D000C7019ADFA1960FB6F894DEBF0FBECDBF4D
:1014E000DF91CF911F910F91FF90EF907F906F90C0
:1014F0005F904F9008952115310541F4DC01ED9185
:10150000FC910190F081E02D642F0994ADCF9A01F8
:10151000462F50E060E070E0EECF4F925F926F9206
:101520007F928F929F92AF92BF92CF92DF92EF9273
:10153000FF92CF93DF93EC016A017B01B22E9A01F7
:10154000AB01C701B60115D4882319F060EA70E039
:1015500024C026013701E89477F82FEF3FEF4FE7DB
:101560005FE7C301B20105D481110CC02FEF3FEF3B
:101570004FE75FE7C301B2014BD218161CF464EACF
:1015800070E00BC02FEF3FEF4FE75FE4C701B601FC
:1015900089D3181694F468EA70E0CE01DF91CF91F8
:1015A000FF90EF90DF90CF90BF90AF909F908F9083
:1015B0007F906F905F904F9027CF2FEF3FEF4FE7D7
:1015C0005FECC701B60124D287FDE5CF20E030E013
:1015D000A901C701B6011CD287FF09C06DE2CE0187
:1015E00029DF4C01F7FAF094F7F8F09402C0812C4F
:1015F000912CA12C60E070E080E09FE3AB1439F007
:1016000020E030E040E251E407D2A394F7CF9B0101
:10161000AC01C701B60198D12B013C0165D26B0129
:101620007C018ED29B01AC01C301B2018CD12B0194
:101630003C012AE0B701A601CE0116DF7C01E80CCF
:10164000F91CBB2029F06EE2CE01F4DEE80EF91E93
:10165000DB2CDD2001F120E030E040E251E4C30169
:10166000B20124D32B013C013FD24B01A12CB12C60
:101670002AE0B501A401CE01F7DEE80EF91EC5018E
:10168000B4015ED29B01AC01C301B2015CD12B015C
:101690003C01DA94DECFC701DF91CF91FF90EF904C
:1016A000DF90CF90BF90AF909F908F907F906F9082
:1016B0005F904F90089531CF1F920F920FB60F9207
:1016C00011242F933F938F939F93AF93BF93809158
:1016D000880390918903A0918A03B0918B03309184
:1016E000870323E0230F2D3720F40196A11DB11DA0
:1016F00005C026E8230F0296A11DB11D2093870384
:101700008093880390938903A0938A03B0938B03FB
:1017100080918C0390918D03A0918E03B0918F03E3
:101720000196A11DB11D80938C0390938D03A0930E
:101730008E03B0938F03BF91AF919F918F913F9193
:101740002F910F900FBE0F901F9018952FB7F89400
:10175000609188037091890380918A0390918B0333
:101760002FBF0895789483B7826083BF83B7816069
:1017700083BF89B7816089BF1EBC8EB582608EBD74
:101780008EB581608EBD8FB581608FBD85B584605B
:1017900085BD85B5806485BD329A319A309A379A75
:1017A0001AB80895FC01918D228D892F90E0805CFC
:1017B0009F4F821B91098F7399270895FC01918D8A
:1017C000828D981731F0828DE80FF11D858D90E0A4
:1017D00008958FEF9FEF0895FC01918D828D9817EA
:1017E00061F0828DDF01A80FB11D5D968C91928D05
:1017F0009F5F9F73928F90E008958FEF9FEF089502
:10180000FC01538D448D252F30E0842F90E0821B06
:10181000930B541710F0CF960895019708958AE915
:1018200099E0892B39F080E090E0892B19F082DD76
:101830008111E6C30895FC01848DDF01A80FB11D5D
:10184000A35ABF4F2C91848D90E001968F739927F6
:10185000848FA689B7892C93A089B1898C918064E3
:101860008C93938D848D981306C00288F389E02DA4
:1018700080818F7D80830895CF93DF93EC01888DE5
:101880008823C1F0EA89FB89808185FD05C0A8898C
:10189000B9898C9186FD0EC00FB607FCF5CF80810B
:1018A00085FFF2CFA889B9898C9185FFEDCFCE0154
:1018B000C2DFE8CFDF91CF910895EF92FF920F93AF
:1018C0001F93CF93DF93EC0181E0888F9B8D8C8DEC
:1018D000981305C0E889F989808185FD23C0F62E1B
:1018E0000B8D10E00F5F1F4F0F731127E02E8C8DB3
:1018F000E8120BC00FB607FCFACFE889F98980819E
:1019000085FFF5CFCE0197DFF2CF8B8DFE01E80F7B
:10191000F11DE35AFF4FF0820B8FEA89FB8980812A
:10192000806207C0EE89FF896083E889F989808138
:101930008064808381E090E0DF91CF911F910F91CF
:10194000FF90EF9008955058BB27AA270ED070C182
:1019500061D130F066D120F031F49F3F11F41EF4D4
:1019600056C10EF4E095E7FB4CC1E92F72D180F32C
:10197000BA17620773078407950718F071F49EF58C
:101980008AC10EF4E0950B2EBA2FA02D0B01B901E0
:1019900090010C01CA01A0011124FF27591B99F0E5
:1019A000593F50F4503E68F11A16F040A22F232FF1
:1019B000342F4427585FF3CF469537952795A79541
:1019C000F0405395C9F77EF41F16BA0B620B730BE8
:1019D000840BBAF09150A1F0FF0FBB1F661F771F59
:1019E000881FC2F70EC0BA0F621F731F841F48F40E
:1019F000879577956795B795F7959E3F08F0B3CF94
:101A00009395880F08F09927EE0F9795879508957D
:101A1000D4D008F481E008950CD00AC102D140F07E
:101A2000F9D030F021F45F3F19F0EBC0511134C10F
:101A3000EEC00FD198F39923C9F35523B1F3951B49
:101A4000550BBB27AA2762177307840738F09F5FDF
:101A50005F4F220F331F441FAA1FA9F333D00E2E4E
:101A60003AF0E0E830D091505040E695001CCAF7BB
:101A700029D0FE2F27D0660F771F881FBB1F261780
:101A800037074807AB07B0E809F0BB0B802DBF0153
:101A9000FF2793585F4F2AF09E3F510568F0B1C071
:101AA000FBC05F3FECF3983EDCF386957795679536
:101AB000B795F7959F5FC9F7880F911D9695879504
:101AC00097F90895E1E0660F771F881FBB1F621723
:101AD00073078407BA0720F0621B730B840BBA0BE1
:101AE000EE1F88F7E0950895BCD088F09F5790F0DE
:101AF000B92F9927B751A0F0D1F0660F771F881F33
:101B0000991F1AF0BA95C9F712C0B13081F0C3D04D
:101B1000B1E00895C0C0672F782F8827B85F39F0EB
:101B2000B93FCCF3869577956795B395D9F73EF491
:101B300090958095709561957F4F8F4F9F4F089539
:101B4000E89409C097FB3EF4909580957095619557
:101B50007F4F8F4F9F4F9923A9F0F92F96E9BB270D
:101B60009395F695879577956795B795F111F8CF89
:101B7000FAF4BB0F11F460FF1BC06F5F7F4F8F4FF4
:101B80009F4F16C0882311F096E911C0772321F0EA
:101B90009EE8872F762F05C0662371F096E8862F82
:101BA00070E060E02AF09A95660F771F881FDAF7D9
:101BB000880F9695879597F90895990F0008550F06
:101BC000AA0BE0E8FEEF16161706E807F907C0F0C3
:101BD00012161306E407F50798F0621B730B840BCB
:101BE000950B39F40A2661F0232B242B252B21F4A5
:101BF00008950A2609F4A140A6958FEF811D811D45
:101C0000089597F99F6780E870E060E008959FEF7E
:101C100080EC089500240A94161617061806090683
:101C2000089500240A941216130614060506089552
:101C3000092E0394000C11F4882352F0BB0F40F4DA
:101C4000BF2B11F460FF04C06F5F7F4F8F4F9F4F1A
:101C5000089557FD9058440F551F59F05F3F71F09C
:101C60004795880F97FB991F61F09F3F79F0879503
:101C70000895121613061406551FF2CF4695F1DF8C
:101C800008C0161617061806991FF1CF869571051C
:101C9000610508940895E894BB2766277727CB0150
:101CA00097F908958ADF08F48FEF08950BD0C0CF1D
:101CB000B1DF28F0B6DF18F0952309F0A2CFA7CF47
:101CC0001124EACFC6DFA0F3959FD1F3950F50E022
:101CD000551F629FF001729FBB27F00DB11D639FDE
:101CE000AA27F00DB11DAA1F649F6627B00DA11D84
:101CF000661F829F2227B00DA11D621F739FB00D2A
:101D0000A11D621F839FA00D611D221F749F332799
:101D1000A00D611D231F849F600D211D822F762F32
:101D20006A2F11249F5750408AF0E1F088234AF02F
:101D3000EE0FFF1FBB1F661F771F881F915050407B
:101D4000A9F79E3F510570F05CCFA6CF5F3FECF343
:101D5000983EDCF3869577956795B795F795E79567
:101D60009F5FC1F7FE2B880F911D9695879597F978
:101D7000089523DF880B990B0895991B79E004C01F
:101D8000991F961708F0961B881F7A95C9F78095BA
:101D90000895A1E21A2EAA1BBB1BFD010DC0AA1FAC
:101DA000BB1FEE1FFF1FA217B307E407F50720F0C4
:101DB000A21BB30BE40BF50B661F771F881F991F3F
:101DC0001A9469F760957095809590959B01AC0188
:101DD000BD01CF010895EE0FFF1F0590F491E02D96
:101DE0000994DC0101C06D9341505040E0F7089523
:101DF000E199FECF9FBB8EBBE09A99278DB30895E2
:101E0000262FE199FECF9FBB8EBB2DBB0FB6F8945A
:0E1E1000E29AE19A0FBE01960895F894FFCF72
:101E1E001F007F002000800020563A0020413A002B
:101E2E0057683A0041683A00526573657400526F04
:101E3E0074617465000F3A0030303A30303A303009
:101E4E000000000000B008D9091D0820080D0A0086
:101E5E006E616E00696E66006F76660000000000AF
:0E1E6E005D0CD909000C3C0CD20BEC0BDE0B0A
:00000001FF
